:020000040800F2
:10000000D86000206D020008095400082942000849
:1000100005540008F50D0008ED7D00080000000003
:10002000000000000000000000000000AD0100081A
:100030003B1400080000000009020008496F000896
:10004000870200088702000887020008870200086C
:10005000870200088702000887020008AD14000824
:100060008702000887020008B7140008870200080A
:10007000870200088702000887020008870200083C
:1000800087020008870200088702000800000000BD
:10009000000000000000000000000000C114000883
:1000A0008702000825700008870200088702000800
:1000B00087020008357000084570000887020008B4
:1000C00087020008870200088702000887020008EC
:1000D00087020008DD7D000887020008000000009C
:1000E000A114000887020008870200080000000031
:1000F000000000000000000000000000870200086F
:100100000000000087020008557000088702000800
:1001100000000000000000000000000000000000DF
:100120000113000887020008111300088702000865
:10013000870200080000000000000000000000002E
:10014000000000000000000000000000870200081E
:1001500087020008870200082113000887020008B0
:10016000870200088702000800000000000000006D
:10017000000000000000000000000000000000007F
:1001800000000000870200080000000000000000DE
:100190008702000887020008DFF80CD000F0D6FBC9
:1001A00000480047ED970008D86000202C4B1968E4
:1001B0000868B0E8F04F80F30988BFF36F8F4FF005
:1001C000000080F3118870470000000008480068B4
:1001D000006880F308884FF0000080F3148862B64E
:1001E00061B6BFF34F8FBFF36F8F00DF00BF00BF5B
:1001F00008ED00E0DFF80C00016841F470010160D7
:10020000704700BF88ED00E0EFF30980BFF36F8F08
:10021000134B1A681EF0100F08BF20ED108A20E95A
:10022000F04F106009B44FF0500080F31188BFF315
:100230004F8FBFF36F8F0BF03FF94FF0000080F34B
:10024000118809BC19680868B0E8F04F1EF0100F5B
:1002500008BFB0EC108A80F30988BFF36F8F704736
:100260007C010020EFF305807047000006488047BE
:1002700006480047FEE7FEE7FEE7FEE7FEE7FEE78B
:10028000FEE7FEE7FEE7FEE71170000899010008AF
:100290002DE9F05F0546002092469B4688460646BB
:1002A000814640241BE0284641464746224600F04E
:1002B000F7F953465A46C01A914110D311461846D1
:1002C000224600F0DEF92D1A67EB01084F46224660
:1002D0000120002100F0D5F917EB00094E41201E46
:1002E000A4F10104DFDC484631462A464346BDE816
:1002F000F09F40EA01039B0703D009E008C9121FE1
:1003000008C0042AFAD203E011F8013B00F8013BCF
:10031000521EF9D27047D2B201E000F8012B491EFB
:10032000FBD270470022F6E710B513460A46044692
:100330001946FFF7F0FF204610BD421E12F8013F9C
:10034000002BFBD111F8013B02F8013B002BF9D146
:10035000704730B505462A460B4612F8010B13F8D4
:10036000014B08B1A042F8D01CB1002802D06D1C8E
:10037000F1E7284630BD421C10F8011B0029FBD1D3
:10038000801A704730B504460020034600E05B1C2D
:10039000934203D2E05CCD5C401BF8D030BD10B579
:1003A000044600E0401C0378002BFBD100E0401C19
:1003B000521E04D311F8013B0370002BF7D100212A
:1003C0000170204610BD2DE9FE4F804681EA0300F2
:1003D000C00F0C46009021F0004123F00045B8EB1F
:1003E0000200A94105D24046214690461C460B46D4
:1003F000024623F00040104347D0270DC7F30A0000
:10040000C3F30A510290401A019040286BDAC3F3FB
:10041000130040F4801B0098924620B10023D2EBD9
:10042000030A63EB0B0B01985946C0F1400250469A
:1004300000F027F906460D4650465946019A00F04D
:100440003FF910EB08006141002487EA115284EA69
:10045000E7731A4340D0009A62B3019A012A4FEA27
:10046000075215DC001B61EB02014FF0004202EA6B
:100470000752CDE90042001C41F5801132462B465F
:1004800000F076F903B0BDE8F08F40462146F9E769
:10049000001B61EB0201001C41F5801300185B4159
:1004A0002018A2F5001747EB030140EAD570B619F2
:1004B0006D4111E06D084FEA360645EAC0754FEA16
:1004C0000752001B61EB0201001C41F58011490835
:1004D0004FEA30000019514132462B4603B0BDE8C7
:1004E000F04F00F036B90098012240000023D0EB15
:1004F000020263EBE073009821464FEAE074B8EB28
:10050000000061EB0401E9E783F000435BE781F061
:10051000004158E72DE9FE4F81EA030404F000444E
:1005200021F0004100944FF0000B23F0004350EA0B
:1005300001045ED052EA03045BD0C3F30A54C1F352
:100540000A552C44A4F2F3340194A0FB0254C1F3E5
:10055000130141F48011C3F3130343F4801301FB2F
:10056000024400FB034E840A970A44EA815447EA96
:100570008357A4FB076802958D0A05FB07854FEAA0
:10058000932C04FB0C542705029D4FEA065847EABA
:100590001637B5EB08056EEB070C870E920E47EA8F
:1005A000811742EA8312A7FB0201B6EB0B0164EB51
:1005B00000042B0D43EA0C335E1844EB1C50DA4662
:1005C0005146E7FB0201C5F313044FEA0B3343EA3C
:1005D00014534FEA0432019C43EA0603A4F10C04CD
:1005E0000294009CCDE900B400F0C2F803B0BDE86D
:1005F000F08F00200146F9E700F0004230F00040A3
:100600000AD0C10D01F56071C0F3160042EA015134
:10061000C20840071143704700200146704701F0AF
:10062000004330B421F0004150EA010206D00A0D27
:10063000A2F56072C1F31301002A02DC30BC002075
:100640007047440F44EAC104C100E01830BC00EB1D
:10065000C25000F047B830B50B46014600202022BA
:10066000012409E021FA02F59D4205D303FA02F5BF
:10067000491B04FA02F52844151EA2F10102F1DC1F
:1006800030BD202A04DB203A00FA02F10020704736
:100690009140C2F1200320FA03F3194390407047C0
:1006A000202A04DB203A21FA02F00021704721FAC7
:1006B00002F3D040C2F1200291400843194670472E
:1006C000202A06DBCB17203A41FA02F043EAE07316
:1006D00006E041FA02F3D040C2F120029140084303
:1006E000194670470029A8BF7047401C490008BF41
:1006F00020F00100704710B4B0FA80FC00FA0CF052
:1007000050EA010404BF10BC704749B1CCF1200489
:1007100021FA04F411FA0CF118BF01212143084316
:10072000A3EB0C01CB1D4FEA00614FEA102042BF42
:10073000002010BC704700EBC35010440029A4BF38
:1007400010BC7047401C490008BF20F0010010BCDD
:10075000704710B5141E73F1000408DA401C41F113
:10076000000192185B411A4301D120F0010010BD35
:100770002DE9F04D92469B4611B1B1FA81F202E0AB
:10078000B0FA80F220329046FFF77BFF04460F4616
:1007900040EA0A0041EA0B0153465A46084313D087
:1007A000114653EA010019D0C8F140025046FFF744
:1007B00077FF05460E46504659464246FFF761FF11
:1007C000084305D0012004E020463946BDE8F08DFD
:1007D0000020054346EAE0762C4337430A98630538
:1007E000E40AA0EB08000022FD0A44EA47540A305C
:1007F00002D500200146E9E7010510196941DDE94C
:10080000084500196941BDE8F04DA2E72DE9F04D1A
:1008100081EA030404F0004B21F0004514464FF038
:10082000000A23F0004150EA050220D054EA0102F8
:100830001DD0C5F30A570246C5F31303C1F31300D5
:10084000C1F30A5640F4801543F48013A7EB060861
:10085000101BD64608F2FD3873EB050002D308F1F1
:10086000010801E092185B41B8F1000F03DA0020A3
:100870000146BDE8F08D00204FF480110646844605
:100880000EE0171B73EB050705D3121B63EB050383
:1008900006434CEA010C49084FEA300092185B41CC
:1008A00050EA0107EDD152EA030012D082EA0400B7
:1008B00083EA0501084305D0101BAB4106D2012293
:1008C000002306E000224FF0004302E06FF0010237
:1008D00053101AEB06004CEB085110EB0A0041EBE9
:1008E0000B01BDE8F04DFFF734BFC1F30A52C1F36D
:1008F000130140F2FF3341F480119A4202DA0020E2
:100900000146704740F233439A42A2F2334202DC7E
:100910005242FFF7C5BEFFF7B4BE000030B5041E5B
:1009200071F1000404DB4FF00044404264EB01012C
:10093000141E73F1000405DB1C464FF000435242C5
:1009400063EB0403994208BF904230BD064C074D4B
:1009500006E0E06840F0010394E80700984710348F
:10096000AC42F6D3FFF71CFC94EB0008B4EB000894
:100970002DE9F04D00231A461B1A8A4103DB0020A3
:100980000146BDE8F08DC1F30A52C1F3130141F4F1
:1009900080154FF0000BD10702D100186D41521E97
:1009A0000027044640F2FF11384601EB620A3E463A
:1009B0008046024600204FF48011FFF771FEC219F5
:1009C0007141BB1846EB0100B4EB030C75EB000C56
:1009D00004D3E41A65EB000517460E46241908F106
:1009E00001006D4180463428E3DDF91946EB06002D
:1009F000091BA84103D24FF0FF32134601E0002249
:100A000013461BEB070046EB0A51BDE8F04DFFF71C
:100A1000A0BE70B58C1810F8015B15F0070301D16A
:100A200010F8013B2A1106D110F8012B03E010F851
:100A3000016B01F8016B5B1EF9D12B0705D4002374
:100A4000521E0DD401F8013BFAE710F8013BCB1A16
:100A5000921C03E013F8015B01F8015B521EF9D50B
:100A6000A142D8D3002070BD70B50546AC6B206C98
:100A700000F0500050BB206C40F4007020642068EF
:100A8000806800F04050E8B9207ED8B92068C06A7C
:100A900000F4700020B12068806800F4806088B99C
:100AA0002068406820F0200021684860206C20F415
:100AB00080702064206C00F4805018B9206C40F0E5
:100AC00001002064204600F019FE0BE0206C00F0CD
:100AD000100018B1204600F013FE03E0A06BC16CBB
:100AE0002846884770BD70B50546AC6B4020206431
:100AF000606C40F004006064204600F001FE70BDB0
:100B000070B50446A56B284600F0F9FD70BD0000E5
:100B100055494A6822F440324A604A6843681A4399
:100B20004A600268526822F4807203685A60026860
:100B30005368026943EA022203685A6002685268F5
:100B400022F0407203685A600268526883681A4350
:100B500003685A600268926822F4006203689A602F
:100B600002689268C3681A4303689A603F4B826ABE
:100B70009A4218D00268926822F0706203689A6004
:100B800002689268836A1A4303689A6002689268EE
:100B900022F0405203689A6002689268C36A1A435E
:100BA00003689A600BE00268926822F07062036842
:100BB0009A600268926822F0405203689A60026864
:100BC000926822F0020203689A6002689368027ECB
:100BD00043EA420203689A602022125CA2B10268D2
:100BE000526842F4006203685A600268526822F454
:100BF000604203685A6002685368426A521E43EAC0
:100C0000423203685A6005E00268526822F40062CA
:100C100003685A600268D26A22F470020368DA62DA
:100C20000268D36A828B521E43EA02520368DA6278
:100C30000268926822F4007203689A6002689368FE
:100C400090F8302043EA422203689A600268926872
:100C500022F4806203689A6002689368426943EAFA
:100C6000822203689A607047002301400100000F50
:100C700070B52DED048B9FED270AB0EE408A9FEDF5
:100C8000250AF0EE408A9FED230AB0EE409A4FF419
:100C90007A75002422E00A2009F010F81E4A1F4944
:100CA0001F4803F0DFFF1D4890ED000A38EE000AF0
:100CB000B0EE408A184890ED000A38EE800AF0EE57
:100CC000408A174890ED000A39EE000AB0EE409ACB
:100CD0001448C07800B104E0601C84B2B4F57A7F97
:100CE000D9DB00BF9FED100AC8EE000A0F48C0ED27
:100CF000000A9FED0D0AC8EE800A0D48C0ED000AFB
:100D00009FED090AC9EE000A0A48C0ED000ABDECD1
:100D1000048B70BD00000000200100201C01002099
:100D200024010020E800002000007A441001002087
:100D3000140100201801002032E01A480078082829
:100D400005DA18480078401C1649087002E00120B6
:100D50001549087015480078082804DA1348007807
:100D6000401C1249087012480078082804DA10481C
:100D70000078401C0E4908700E4991F900000028C7
:100D800001DB014600E041420B4A1278914204DD4A
:100D900009480078401C0849087000200AF020FB30
:100DA000CBE70000CE000020D7000020D0000020BC
:100DB000CD000020D3000020CC00002010E0322223
:100DC0000849094802F04FFF08480068006820F011
:100DD0000800064909680860054800680AF000FB39
:100DE000EDE700003E060020C004002008050020BA
:100DF000E400002000BFFEE741E02148807890B188
:100E000003F078FE00F05CF8012000F03FF81D4888
:100E1000007828B11C48007880F001001A49087059
:100E20000020174988701648C07858B103F0C4FEF6
:100E300000F046F8012000F029F80020124908705F
:100E40000F49C8700E48007848B104F0AFFE00F0BA
:100E500037F8012000F01AF8002009490870084806
:100E6000407848B104F096FE00F02AF8012000F026
:100E70000DF800200249487000200AF0B1FABCE7E2
:100E8000E8000020D7000020AA00002010B504468A
:100E90006CB101220421094801F0F8F8642008F03F
:100EA0000DFF00220421054801F0F0F804E00122C2
:100EB0000421024801F0EAF810BD000000040240DD
:100EC0002D48407830B12D49087800EBD071491099
:100ED0002B4A11702B48006840782B4909788842CA
:100EE0000ADA002029490870294908702949087040
:100EF0002949087029490870224800684078224929
:100F0000097888420BDD00202049087020490870CC
:100F100020490870012020490870204908701648AF
:100F2000807850B10020194908701D4908700120CF
:100F30001C4908700020124908700F48C07830B171
:100F400000201249087016490870164908700D49AA
:100F50000968897801EB4101480000EBD071084A2B
:100F60001278C2EB610149B20F4A1170054800685E
:100F70004078054908707047E8000020D200002042
:100F8000CF000020A0000020D1000020CC000020D5
:100F9000D0000020CD000020D5000020D40000208B
:100FA000CE000020D6000020D30000202DE9F04123
:100FB00005460E46174698462C2008F051FC04467C
:100FC0002146304604F022FAE5610020A06160620B
:100FD00020622878401C2070B8F1000F02D1002058
:100FE000607001E001206070AC61A7622046BDE83E
:100FF000F08170B505462C2008F032FC0446012033
:10100000207060700020E061A06120626062A562D3
:10101000204670BD2DE9F04105460E4617462C20AE
:1010200008F01EFC04462146304604F0EFF900208B
:101030006062A87858B901206070002020626C625C
:10104000A86A10B9E869E06108E0E56106E0256298
:101050006878401C6070E869E0616C62A76228787B
:1010600020700020A0612046BDE8F08170B50546E3
:101070002C2008F0F5FB0446E5610020A0616062C9
:1010800020622878401C207000206070A06202203E
:10109000A070AC61204670BD10B500F03DF8012293
:1010A0001146144800F0F2FF00220121114800F01F
:1010B000EDFF14200AF010F8012211460D4800F04F
:1010C000E5FF00F019F800BF01210A4800F0CCFF4D
:1010D0000028F9D100BF0121064800F0C5FF002813
:1010E000F9D000BF0121034800F0BEFF0028F9D16C
:1010F00010BD00000004024000B585B00120009042
:1011000000200190022003906946024800F0C8FECA
:1011100005B000BD0004024000B585B0012000907C
:101120000190022003906946024800F0B9FE05B024
:1011300000BD000000040240F8B503F071FD044654
:1011400000264948006849490968401AB0F5FA6F15
:1011500004D945480068454908600126444800789C
:10116000002847D0F6B3FFF797FF002505E000F011
:101170009DF840494855681CC5B2052DF7DB3E482F
:10118000006801F029FC3B4800783A494978084456
:101190003849897808443749C97808443549097974
:1011A000884227D13348007800EE100AB8EE400A92
:1011B0003048407800EE900AF8EE600A9FED2F1A52
:1011C00000EE810A2E4880ED000A2A48807800EE61
:1011D000100AB8EE400A2748C07800EE900AF8EEF0
:1011E000600A00E006E09FED251A00EE810A25481E
:1011F00080ED000A24480078009004F11400C1B288
:10120000224B23A2252004F0D1FA04F11400C1B22C
:101210001D4803781D4A1B4890ED000A432004F046
:101220009FFA19480078009004F12000C1B2174BD2
:1012300019A2252004F0BAFA04F12000C1B2124824
:101240000378124A0E4890ED000A432004F088FA11
:101250000D480078009004F13800C1B2104B11A283
:10126000682004F0A3FAF8BD1C000020480100200B
:10127000D70000203801002020000020CDCCCC3D3C
:101280004401002040010020A80000201CE00008CC
:10129000E6B8A9E5BAA63A00E6B9BFE5BAA63A00AB
:1012A00018DD00084261636B0000000070B5002487
:1012B00000251EE000BF0121104800F0D5FE0028E7
:1012C000F9D0322000F0BAF801210C4800F0CCFE31
:1012D000012808D1012600BF0121084800F0C4FE02
:1012E0000028F9D100E000266006040E3443681C93
:1012F000C5B2082DDEDB204670BD000000040240B0
:1013000010B5024800F0BAFB10BD000050020020EA
:1013100010B5024800F0B2FB10BD00000805002027
:1013200010B5024800F0AAFB10BD000068050020BF
:101330000146087810381823B0FBF3F20848805CA7
:10134000C865032A05D908686FF30900001D886580
:1013500003E008686FF309008865886D7047000036
:10136000E4C20008014600208A6A8B69CBB932B119
:10137000012A0DD0022A03D0032A10D10EE000BFAB
:10138000CB6A03F08073B3F1807F00D1012007E0C6
:10139000CB6AB3F1C07F00D1012001E000E000BFC3
:1013A00034E08B69B3F5005F1AD132B1012A07D05E
:1013B000022A03D0032A11D10AE000BF01200EE067
:1013C000CB6A03F08073B3F1807F00D1012006E087
:1013D000CB6AB3F1C07F00D1012000E000BF15E06F
:1013E00032B1012A05D0022A04D0032A0CD103E02D
:1013F00000BF00BF012008E0CB6A03F08073B3F1A7
:10140000807F00D1012000E000BF00BF704730B5F1
:101410000468246824F4802405682C6004686360F0
:101420008468402C04D10468A2600468E16003E091
:101430000468A1600468E26030BD70472DE9F047A0
:10144000074600264FF0E020D0F8149012480068BC
:101450001249B0FBF1F000FB07F80AF025F84FF055
:10146000E020856911E04FF0E0208469AC420CD0A7
:10147000AC4202D2281B064403E0A9EB0400284436
:1014800006442546464500D300E0ECE700BF0AF0DD
:1014900017FEBDE8F08700002800002040420F0042
:1014A00010B54FF4806000F0EDFC10BD10B50220C7
:1014B00000F0E8FC10BD10B5102000F0E3FC10BDFA
:1014C00010B5202000F0DEFC10BD72B600BFFEE7B4
:1014D00070B5044605E0656A204608F017F92C4609
:1014E00000BF002CF7D170BD27E014480078A8B9E0
:1014F0001348007804F006F912490968886A8047A1
:1015000005F0ECFB10480021016005F0A9FB0F4835
:10151000006809F0C1FE04F017FB0AE04FF48041B7
:101520000B4800F0A1FD10B101200749887003F0BD
:101530008EFF0848006809F0AFFED6E7A90000203A
:10154000A8000020A4000020E800002014000020D3
:10155000000802401000002038B50246002000902C
:1015600000BF92F83C00012801D1022038BD0120C3
:1015700082F83C0000BF0868092816D91068C068C6
:101580000C780A3C04EB44050724AC40A0431468E3
:10159000E0600C780A3C04EB44048868A0401468BE
:1015A000E46820431468E06013E0106800690C7878
:1015B00004EB44050724AC40A043146820610C7878
:1015C00004EB44048868A04014682469204314682C
:1015D00020614868072817D21068406B0C79641E98
:1015E00004EB84051F24AC40A043146860630888A2
:1015F00080B20C79641E04EB8404A0401468646B10
:1016000020431468606331E048680D2817D21068E1
:10161000006B0C79E41F04EB84051F24AC40A0434D
:1016200014682063088880B20C79E41F04EB8404FA
:10163000A0401468246B20431468206316E01068EF
:10164000C06A0C790D3C04EB84051F24AC40A04318
:101650001468E062088880B20C790D3C04EB8404C5
:10166000A0401468E46A20431468E0621E4B1F4CDB
:101670001068A0420AD10868122807D1586820F4DF
:1016800000005860586840F480005860174C10689B
:10169000A04222D1164C0868A04202D00868112846
:1016A0001BD1586820F480005860586840F400004E
:1016B00058600F4C0868A0420FD10E4800680E4CCD
:1016C000B0FBF4F000EB80004000009002E00098D6
:1016D000401E009000980028F9D100BF002082F839
:1016E0003C0000BF00BF41E7002301400020014053
:1016F000120000102800002040420F007047704781
:101700007047000070B5044600250CB9012070BD7B
:101710001549A06A884200D000BF206C30B920462D
:1017200000F024F80020606484F83C00206C00F095
:10173000100088B9206C20F4885040F0020020642A
:101740002046FFF7E5F900206064206C20F00200DD
:1017500040F00100206400E0012500BF002084F873
:101760003C0000BF2846D2E70100000F10B586B04C
:101770000446142101A8FEF7D5FD284920688842B7
:1017800049D100BF002000902548006840F48070D7
:10179000234908600846006800F48070009000BF8C
:1017A00000BF00BF002000901D481438006840F0C2
:1017B00001001B49143908600846006800F0010068
:1017C000009000BF00BF0120019003200290002084
:1017D000039001A9134800F063FB13481349086004
:1017E00000204860002111488160C1604FF4806191
:1017F000016149004161890081610021C16101628B
:10180000416200F05BFA08B1FFF75FFE00BF0748D6
:10181000A063846300BF06B010BD0000002001403B
:101820004438024000000240106402405002002090
:10183000F8B504460D4616460020009000BF94F807
:101840003C00012801D10220F8BD012084F83C00B1
:1018500000BF2068806800F00100A0B9206880689F
:1018600040F0010021688860484800684849B0FBA2
:10187000F1F000EB4000009002E00098401E009064
:1018800000980028F9D12068806800F48070B0F5D5
:10189000807F05D12068806820F48070216888608E
:1018A0002068806800F00100002865D0206C40F2BC
:1018B0000161884340F4807020642068406800F42F
:1018C000806028B1206C20F4005040F480502064E7
:1018D000206C00F48050B0F5805F04D1606C20F083
:1018E0000600606401E00020606400BF002084F80E
:1018F0003C0000BF274F2848A16BC8632748A16B55
:1019000008642748A16BC8646FF022002168086052
:101910002068406840F080602168486020688068E6
:1019200040F4807021688860226802F14C013346DF
:101930002A46A06B00F038FA786800F01F0058B90A
:101940002068806800F04050F0B92068806840F05E
:1019500080402168886017E012492068884213D1CE
:101960002068806800F0405070B92068806840F0BE
:1019700080402168886007E0206C40F010002064FF
:10198000606C40F00100606400205DE728000020EA
:1019900040420F0000230140690A0008010B0008C3
:1019A000E70A00080020014070B50446A56D00F06C
:1019B00073FB064694F83500022808D08020606545
:1019C00000BF002084F8340000BF012070BD2068F3
:1019D000006820F01600216808602068406920F047
:1019E000800021684861206C08B9A06C28B120688B
:1019F000006820F00800216808602068006820F076
:101A000001002168086010E000F046FB801B0528FB
:101A10000BD920206065032084F8350000BF00202A
:101A200084F8340000BF0320D0E72068006800F08D
:101A300001000028E8D194F85C103F208840A8609D
:101A4000012084F8350000BF002084F8340000BF76
:101A500000BFBBE7014691F83500022803D0802083
:101A6000486501207047052081F835000868006846
:101A700020F001000A6810600020F3E7F8B5044682
:101A8000002000908C4800684FF41651B0FBF1F72D
:101A9000A56D2E6894F85C1008208840304098B1FD
:101AA0002068006800F0040070B12068006820F031
:101AB00004002168086094F85C1008208840A86041
:101AC000606D40F00100606594F85C100120884072
:101AD000304068B12068406900F0800040B194F85F
:101AE0005C1001208840A860606D40F002006065D5
:101AF00094F85C1004208840304068B12068006889
:101B000000F0020040B194F85C1004208840A86006
:101B1000606D40F00400606594F85C10102088400F
:101B2000304078B32068006800F0080050B394F8A3
:101B30005C1010208840A8602068006800F48020B5
:101B400080B12068006800F4002028B9206CC8B17A
:101B50002046216C884715E0A06C98B12046A16C06
:101B600088470FE02068006800F4807028B920687A
:101B7000006820F0080021680860206C10B1204641
:101B8000216C884794F85C10202088403040002861
:101B900065D02068006800F0100000285FD094F83D
:101BA0005C1020208840A86094F83500052828D1D2
:101BB0002068006820F016002168086020684069ED
:101BC00020F0800021684861206C08B9A06C28B121
:101BD0002068006820F008002168086094F85C1014
:101BE0003F208840A860012084F8350000BF002015
:101BF00084F8340000BF206D10B12046216D884765
:101C0000F8BD2068006800F4802080B1206800687A
:101C100000F4002028B9606C10B12046616C884740
:101C20001DE0E06BD8B12046E16B884717E02068E3
:101C3000006800F4807068B92068006820F0100027
:101C400021680860012084F8350000BF002084F876
:101C5000340000BFE06B10B12046E16B8847606D37
:101C600038B3606D00F00100F0B1052084F8350054
:101C70002068006820F001002168086000BF00981B
:101C8000401C0090B84200D905E02068006800F0D0
:101C900001000028F3D100BF012084F8350000BF07
:101CA000002084F8340000BFE06C10B12046E16CE5
:101CB000884700BFA4E70000280000202DE9F0417C
:101CC0000446002500F0E8F9074614B90120BDE8F4
:101CD000F081606A00B100BF022084F8350000BFC7
:101CE000002084F8340000BF2068006820F0010064
:101CF000216808600AE000F0CFF9C01B052805D96B
:101D000020206065032084F83500E0E72068006843
:101D100000F001000028EED1206805682148054048
:101D2000D4E901010843E168084321690843616976
:101D30000843A1690843E1690843216A0843054350
:101D4000606A042803D1D4E90B01084305432068E5
:101D500005602068456925F00705606A0543606AEB
:101D600004280DD1A06A0543E06A48B12046FFF778
:101D7000F9FA28B140206065012084F83500A6E713
:101D8000206845612046FFF7D3FA064694F85C10B8
:101D90003F208840B06000206065012084F8350055
:101DA000002094E73F8010F02DE9F04704460D46EF
:101DB00016461F464FF00008D4F8589000BF94F81C
:101DC0003400012802D10220BDE8F087012084F808
:101DD000340000BF94F83500012825D1022084F892
:101DE0003500002060653B46324629462046FFF715
:101DF0000EFB94F85C103F208840C9F8080020686A
:101E0000006840F0160021680860206C28B1206846
:101E1000006840F00800216808602068006840F011
:101E200001002168086006E000BF002084F834004B
:101E300000BF4FF002084046C6E7000070B50446F8
:101E400000F02AF906462546681C10B104480078BF
:101E5000054400BF00F020F9801BA842FAD370BDF2
:101E60002400002010B50446022C00D000BF002042
:101E7000034909684862024801F07AFB10BD00007E
:101E80003004002010B5044604480068204020B10A
:101E9000024804602046FFF7E5FF10BD143C0140F6
:101EA000F8B502460B460025002400200021C7E0BB
:101EB000012606FA01F51E6806EA0504AC4274D153
:101EC0001E7906F00306012E04D01E7906F00306E3
:101ED000022E13D190684F000326BE40B0434F003E
:101EE000DE68BE4030439060506801268E40B043AB
:101EF0001E79C6F300168E40304350601E7906F0FE
:101F00000306032E09D0D0684F000326BE40B0431D
:101F10004F009E68BE403043D0601E7906F0030635
:101F2000022E13D1CF0802F1200656F827004E07E3
:101F3000F70E0F26BE40B0434F07FF0E1E69BE408E
:101F40003043CF0802F1200646F8270010684F0002
:101F50000326BE40B0431E7906F003064F00BE4084
:101F6000304310605E6806F44036002E67D000BF34
:101F700000260096344E366846F48046324F3E6066
:101F80003E46366806F48046009600BF00BF2F4EDE
:101F90008F0856F827008E07370F0F26BE40B04334
:101FA0002B4EB24202D1002615E048E0294EB24243
:101FB00001D101260FE0284EB24201D102260AE0EB
:101FC000264EB24201D1032605E0254EB24201D190
:101FD000042600E007268F073F0FBE4030431B4E0C
:101FE0008F0846F827001F4E3068A0435E6806F44D
:101FF000801606B120431B4E3060361D3068A0436A
:102000005E6806F4001606B12043164E361D306099
:10201000144E361F3068A0435E6806F4003606B1E1
:102020002043104E361F3060361F3068A0435E6874
:1020300006F4803606B120430A4E083E3060491C43
:102040001029FFF435AFF8BD44380240083801408C
:10205000000002400004024000080240000C024060
:1020600000100240083C0140024613690B400BB1CE
:10207000012000E00020704710B5426921EA020308
:1020800002EA010443EA0443836110BD0AB181619D
:1020900001E00B048361704701480068704700004D
:1020A0001C00002070B504460CB9012070BD94F8E6
:1020B0003D0028B9002084F83C00204600F0C8FB11
:1020C000242084F83D002068006820F00100216889
:1020D00008602068006840F40040216808602068BB
:1020E000006820F400402168086000F03FFE0546CB
:1020F0005C496068884206D85B48854201D201206D
:1021000007E0002005E05948854201D2012000E0A7
:102110000020012800D1C9E75548B5FBF0F620683A
:10212000406820F03F003043216848604D496068B6
:10213000884201D8701C07E04FF4967070434FF44A
:102140007A71B0FBF1F0401C2168096A21F03F016F
:1021500008432168086243496068884214D8681EB1
:1021600061684900B0FBF1F0401CC0F30B0004288B
:1021700001D204203DE0681E61684900B0FBF1F027
:10218000401CC0F30B0034E0A06838B9681E6168D9
:1021900001EB4101B0FBF1F0401C0AE0681E6168F0
:1021A00001EBC10202EB0111B0FBF1F0401C40F465
:1021B0008040C0F30B0008B901201AE0A06848B9BC
:1021C000681E616801EB4101B0FBF1F0401CC0F3F7
:1021D0000B000CE0681E616801EBC10202EB01110B
:1021E000B0FBF1F0401CC0F30B0040F4804040F421
:1021F00000402168C9694CF6FF7291430843216889
:10220000C861D4E9070108432168096821F0C001C9
:10221000084321680860D4E90310084321688968ED
:1022200048F2FF329143084321688860D4E90501F0
:1022300008432168C96821F0FF0108432168C8608C
:102240002068006840F001002168086000202064D8
:10225000202084F83D000020206384F83E0000BF69
:1022600024E70000A086010080841E0000093D00D4
:1022700040420F002DE9F8430446894616461F46A2
:10228000DDF82080FFF708FF054694F83D00202880
:102290007ED11923012251492046009502F099F977
:1022A00010B10220BDE8F88300BF94F83C0001287B
:1022B00001D10220F6E7012084F83C0000BF20682D
:1022C000006800F0010028B92068006840F00100B3
:1022D000216808602068006820F4006021680860B8
:1022E000212084F83D00102084F83E000020206466
:1022F00066626785608D20853948E0622B464246DC
:102300004946204601F0B2FF08B10120CAE700BFEC
:10231000002000902068406900902068806900904B
:1023200000BF00BF44E02A464146204602F072FA50
:1023300050B1206C042805D12068006840F400707A
:10234000216808600120ADE7606A007821680861B3
:10235000606A401C6062608D401E6085208D401E5A
:10236000208520684069C0F3800070B1208D60B185
:10237000606A007821680861606A401C6062608D54
:10238000401E6085208D401E20852A46414600E083
:1023900022E0204602F0EAF850B1206C042805D172
:1023A0002068006840F4007021680860012079E727
:1023B000208D0028B7D12068006840F400702168A3
:1023C0000860202084F83D00002084F83E0000BF13
:1023D00084F83C0000BF65E7022063E702001000BC
:1023E0000000FFFF2DE9FC5F04460F46904699462A
:1023F000DDE90CAB0E9EFFF74FFE054694F83D005D
:10240000202870D119230122B5492046009502F0F9
:10241000E0F810B10220BDE8FC9F00BF94F83C003A
:10242000012801D10220F6E7012084F83C0000BF1A
:102430002068006800F0010028B92068006840F0BA
:102440000100216808602068006820F400602168AD
:102450000860222084F83D00402084F83E000020DF
:102460002064C4F824A0A4F82AB0608D20859D487B
:10247000E0624B46424639462046CDE9006501F010
:1024800055FF08B10120C6E7208D88B900BF0020A4
:10249000019020684069019020688069019000BF28
:1024A00000BF2068006840F400702168086040E0C8
:1024B000208D012818D12068006820F480602168F0
:1024C000086000BF002001902068406901902068EA
:1024D0008069019000BF00BF2068006840F4007070
:1024E0002168086025E0F8E0208D022816D12068D8
:1024F000006820F48060216808602068006840F46B
:1025000000602168086000BF0020019020684069D9
:10251000019020688069019000BF0AE000BF0020A0
:10252000019020684069019020688069019000BF97
:1025300000BFC3E0208D03287ED8208D012815D14F
:102540002A463146204602F020F908B1012062E710
:1025500020680069616A0870606A401C6062208DB2
:10256000401E2085608D401E6085A7E0208D0228DA
:102570002AD1334600225C492046009502F029F812
:1025800008B1012047E72068006840F40070216826
:10259000086020680069616A0870606A401C6062B7
:1025A000208D401E2085608D401E6085206800695A
:1025B000616A0870606A401C6062208D401E208540
:1025C000608D401E608579E03346002246492046F2
:1025D000009501F0FEFF08B101201CE720680068AB
:1025E00020F480602168086020680069616A0870D2
:1025F000606A401C6062208D401E2085608D401EF8
:1026000060853346002238492046009501F0E1FFFD
:1026100008B10120FFE62068006840F400702168DE
:10262000086020680069616A0870606A401C606226
:10263000208D401E208500E010E0608D401E6085EA
:1026400020680069616A0870606A401C6062208DC1
:10265000401E2085608D401E60852FE02A46314651
:10266000204602F092F808B10120D4E62068006903
:10267000616A0870606A401C6062208D401E20857F
:10268000608D401E608520684069C0F38000A8B15D
:10269000208D032805D12068006820F4806021681F
:1026A000086020680069616A0870606A401C6062A6
:1026B000208D401E2085608D401E6085208D002865
:1026C0007FF438AF202084F83D00002084F83E00DD
:1026D00000BF84F83C0000BF9DE602209BE600009E
:1026E000020010000000FFFF040001002DE9FC5F64
:1026F00004460F4690469946DDE90CAB0E9EFFF767
:10270000CBFC054694F83D0020287DD119230122F9
:102710004D492046009501F05CFF10B10220BDE854
:10272000FC9F00BF94F83C00012801D10220F6E78D
:10273000012084F83C0000BF2068006800F0010020
:1027400028B92068006840F001002168086020680E
:10275000006820F4006021680860212084F83D00B2
:10276000402084F83E0000202064C4F824A0A4F88F
:102770002AB0608D20853548E0624B464246394696
:102780002046CDE9006501F081FE08B10120C6E7D1
:1027900031E02A463146204602F03CF850B1206C28
:1027A000042805D12068006840F4007021680860A2
:1027B0000120B4E7606A007821680861606A401C03
:1027C0006062208D401E2085608D401E60852068DF
:1027D0004069C0F3800070B1208D60B1606A0078FC
:1027E00021680861606A401C6062208D401E20855F
:1027F000608D401E6085208D0028CAD12A46314652
:10280000204601F0B3FE00E01CE050B1206C04282B
:1028100005D12068006840F400702168086001203C
:102820007DE72068006840F400702168086020207F
:1028300084F83D00002084F83E0000BF84F83C008E
:1028400000BF6CE702206AE7020010000000FFFFF3
:1028500010B586B00446142101A8FDF763FD444974
:10286000206888422FD100BF0020009041480068B6
:1028700040F002003F4908600846006800F002008E
:10288000009000BF00BFC0200190122002900020E5
:102890000390032004900420059001A93648FFF717
:1028A000FFFA00BF0020009032481030006840F46A
:1028B00000103049103108600846006800F400102C
:1028C000009000BF51E02D49206888424DD100BFE3
:1028D000002000902748006840F00100254908606A
:1028E0000846006800F00100009000BF00BF00BF74
:1028F000002000900846006840F00200086008468A
:10290000006800F00200009000BF00BF8815019031
:1029100012200290002003900320049004200590D0
:1029200001A91748FFF7BCFA4FF4807001901220FC
:10293000029000200390032004900920059001A933
:102940000D48FFF7ADFA00BF002000900948103095
:10295000006840F40000074910310860084600682C
:1029600000F40000009000BF00BF06B010BD0000E2
:10297000005400403038024000040240005C004037
:1029800000000240034800680349097808440149EF
:10299000086070471C0000202400002010B50D487E
:1029A000006840F400700B4908600846006840F475
:1029B000806008600846006840F48070086003206A
:1029C00000F0D6F80F2000F007F800F055F80020CE
:1029D00010BD0000003C0240F0B587B00446002660
:1029E000002700BF002000901E48006840F400301F
:1029F0001C4908600846006800F40030009000BFE1
:102A000000BF01A902A800F089F900F0BFF906464D
:102A10001548B6FBF0F0471E14481549086040F20F
:102A2000E7311348C1604760002101618160816125
:102A300000F0B2FC054695B90D4800F099FD054639
:102A40006DB9192000F042F8102C07D2002221465F
:102A5000192000F04FF80748046000E001252846DF
:102A600007B0F0BD4438024040420F00004401402E
:102A7000C80500202000002008B500BF00200090FD
:102A80001148006840F480400F490860084600681B
:102A900000F48040009000BF00BF00BF0020009005
:102AA000081F006840F08050091F08600846006851
:102AB00000F08050009000BF00BF00220F21901E48
:102AC00000F018F808BD00004438024001460846EE
:102AD00000280DDB00BF00BF00F01F0301229A4059
:102AE00043099B0003F1E023C3F8002100BF00BFAE
:102AF00000BF70472DE9F05F80460D46164600275F
:102B000005F032FB074639462A46334601F00700F6
:102B1000C0F1070ABAF1040F02D94FF0040A01E02C
:102B2000C0F1070AD14600F1040ABAF1070F02D238
:102B30004FF0000A01E0A0F1030AD4464FF0010A69
:102B40000AFA09FAAAF1010A0AEA020A0AFA0CFACE
:102B50004FF0010B0BFA0CFBABF1010B0BEA030B73
:102B60004AEA0B042146404605F006FBBDE8F09F0B
:102B700000BF00F00702064B19684FF6FF0319402B
:102B8000044B0B4343EA0221014B196000BF70471D
:102B90000CED00E00000FA0570B504460D460CB9D6
:102BA000012070BD5848006800F00700A84209D213
:102BB00055490D700846006800F00700A84201D092
:102BC0000120EEE7207800F0020002281DD12078D5
:102BD00000F00400042805D14C48006840F4E0509F
:102BE0004A490860207800F00800082805D14748C5
:102BF000006840F46040454908604448006820F09F
:102C0000F000A168084341490860207800F0010005
:102C1000A8B36068012807D13C4808380068C0F3B1
:102C20004040B8B90120BCE76068022802D0606863
:102C3000032807D1354808380068C0F3406048B918
:102C40000120AEE7314808380068C0F3400008B9F9
:102C50000120A6E72D48006820F0030061680843C2
:102C60002A490860FFF718FA064609E0FFF714FA48
:102C7000801B41F28831884202D9032091E707E0A6
:102C80002248006800F00C006168B0EB810FEDD1C4
:102C90001D48006800F00700A84209D91A490D70C4
:102CA0000846006800F00700A84201D0012078E73C
:102CB000207800F00400042807D11448006820F4AC
:102CC000E050E168084311490860207800F00800EE
:102CD000082808D10D48006820F46040216940EAC6
:102CE000C1000A49086000F061F808490968C1F3A9
:102CF0000311074A515CC84006490860064800684D
:102D0000FFF76AFE00204CE7003C02400838024012
:102D1000ECC2000828000020200000200F220260E2
:102D20000D4A126802F0030242600B4A126802F078
:102D3000F0028260084A126802F4E052C260064A59
:102D4000126802F46042D2080261044A126802F07A
:102D500007020A607047000008380240003C024049
:102D600001480068704700002800002000B5FFF708
:102D7000F7FF04490968C1F38221034A515CC84046
:102D800000BD000008380240FCC2000800B5FFF793
:102D9000E7FF04490968C1F34231034A515CC84066
:102DA00000BD000008380240FCC200082DE9F047D1
:102DB000002400250026A1462548006800F00C00EC
:102DC00020B1042805D008283AD105E0DFF8849026
:102DD00039E0DFF8849036E01D48001F006800F0FD
:102DE0003F041B48001F006800F4800078B11A48B7
:102DF0001749091F0968C1F38811A0FB017001463A
:102E0000224600233846FDF743FA05460EE01148F6
:102E10000F49091F0968C1F38811A0FB0170014621
:102E2000224600233846FDF733FA05460848001FBE
:102E30000068C0F30140401C4600B5FBF6F902E013
:102E4000DFF8109000BF00BF4846BDE8F0870000E3
:102E5000083802400024F40040787D01F8B50446AB
:102E60000CB90120F8BD207800F00100002874D0D2
:102E7000F948006800F00C0004280DD0F6480068FE
:102E800000F00C00082813D1F348001F006800F47C
:102E90008000B0F5800F0BD1EF4808380068C0F310
:102EA0004040002859D06068002856D10120D9E759
:102EB00000BF6068B0F5803F08D1E7480838006877
:102EC00040F48030E449083908601EE06068B0F5DD
:102ED000A02F0DD1E0480838006840F48020DE497A
:102EE000083908600846006840F4803008600CE04B
:102EF000D9480838006820F48030D749083908607C
:102F00000846006820F48020086000BF606890B127
:102F1000FFF7C2F8054606E0FFF7BEF8401B64283D
:102F200001D903209EE7CC4808380068C0F3404030
:102F30000028F1D011E0FFF7AFF8054606E0FFF7F3
:102F4000ABF8401B642801D903208BE7C24808383E
:102F50000068C0F340400028F1D1207800F0020062
:102F600002285FD1BC48006800F00C0058B1BA4894
:102F7000006800F00C0008281CD1B748001F00684A
:102F800000F48000B0B9B44808380068C0F34000CD
:102F900020B1E068012801D0012063E7AE4808387D
:102FA000006820F0F800216940EAC100AA49083908
:102FB000086037E0E06800B30120A8490860FFF727
:102FC0006BF8054606E0FFF767F8401B022801D9B9
:102FD000032047E7A04808380068C0F340000028F5
:102FE000F1D09D480838006820F0F800216940EAD7
:102FF000C10099490839086014E000209749086029
:10300000FFF74AF8054606E0FFF746F8401B02289E
:1030100001D9032026E7904808380068C0F3400033
:103020000028F1D1207800F0080008282CD1606930
:10303000A8B101208A490860FFF72EF8054606E08E
:10304000FFF72AF8401B022801D903200AE782482B
:103050006C300068C0F340000028F1D014E000207C
:103060007F490860FFF718F8054606E0FFF714F8F7
:10307000401B022801D90320F4E677486C30006831
:10308000C0F340000028F1D1207800F004000428AB
:1030900070D1002770483830006800F0805090B937
:1030A00000BF002000906C483830006840F080502D
:1030B0006949383108600846006800F08050009087
:1030C00000BF00BF01276748006800F48070B0B9F6
:1030D0006448006840F4807062490860FEF7DCFFD5
:1030E000054606E0FEF7D8FF401B022801D9032061
:1030F000B8E65C48006800F480700028F2D000BF99
:10310000A068012808D154486830006840F00100E8
:103110005149683108601DE0A06805280DD14E486E
:103120006830006840F004004B4968310860084688
:10313000006840F0010008600CE047486830006813
:1031400020F001004449683108600846006820F01A
:103150000400086000BFA068A8B1FEF79DFF054607
:1031600009E0FEF799FF401B41F28831884202D9FD
:10317000032077E626E0384868300068C0F3400056
:103180000028EED013E0FEF787FF054608E0FEF7C3
:1031900083FF401B41F28831884201D9032061E658
:1031A0002D4868300068C0F340000028EFD1012F9F
:1031B00007D129483830006820F08050264938313E
:1031C000086000BFA069002845D02348006800F0CF
:1031D0000C0008285DD0A069022845D100201F49B5
:1031E0000866FEF759FF054606E0FEF755FF401B4F
:1031F000022801D9032035E6174808380068C0F3D3
:1032000040600028F1D1D4E907010843616A40EA2F
:1032100081110122A06AC2EB500041EA00412C203A
:10322000005D41EA00600C49091F086001200B495C
:103230000866FEF731FF054606E0FEF72DFF401B4E
:10324000022801D903200DE6034808380068C0F3BE
:1032500040600028F1D049E00838024000004742B1
:10326000800E474200700040002021490866FEF7AA
:1032700013FF054606E0FEF70FFF401B022801D9A9
:103280000320EFE51B480068C0F340600028F2D13E
:103290002CE0A069012800D1E4E51648001D06686D
:1032A000A069012820D006F48001E06981421BD189
:1032B00006F03F01206A814216D147F6C0703040C7
:1032C000616AB0EB811F0FD106F440310122A06A80
:1032D000C2EB5000B1EB004F06D106F070612C201C
:1032E000005DB1EB006F01D00120BBE50020B9E526
:1032F00000004742003802407047704730B5024630
:103300000B4600BF92F83C00012801D1022030BDDD
:10331000012082F83C0000BF022082F83D001068C6
:1033200044681068816824F07004186804431068C9
:103330004460144D1068A84213D01068B0F1804F5B
:103340000FD0114D1068A8420BD0104D1068A84244
:1033500007D00F4D1068A84203D00E4D1068A84248
:1033600005D121F080015868014310688160012077
:1033700082F83D0000BF002082F83C0000BF00BF83
:10338000C5E70000000001400004004000080040C4
:10339000000C00400040014010B504460CB901206B
:1033A00010BD94F83D0028B9002084F83C00204668
:1033B00000F026F8022084F83D00211D206803F06B
:1033C00051FE012084F8460000BF84F83E00012130
:1033D0003F200155402001554120015500BF00BF4D
:1033E000012084F842004320015544200155452026
:1033F000015500BF012084F83D000020D0E7000007
:1034000038B504462068B0F1804F0FD100BF0020CE
:1034100000903248006840F00100304908600846DA
:10342000006800F00100009000BF55E02C492068C2
:10343000884218D100BF002000902848006840F062
:103440000200264908600846006800F0020000906B
:1034500000BF00BF002207211D20FFF74BFB1D20EE
:10346000FFF734FB38E01F492068884218D100BFBD
:10347000002000901948006840F0040017490860D7
:103480000846006800F00400009000BF00BF002262
:1034900006211E20FFF72EFB1E20FFF717FB1BE067
:1034A00011492068884217D100BF002000900B48C6
:1034B000006840F00800094908600846006800F00C
:1034C0000800009000BF00BF002207213220FFF754
:1034D00011FB3220FFF7FAFA38BD000040380240F5
:1034E0000004004000080040000C0040014691F834
:1034F0003D00012801D001207047022081F83D00E5
:10350000164B0868984213D00868B0F1804F0FD06E
:10351000134B086898420BD0124B0868984207D0AA
:10352000114B0868984203D0104B086898420CD1A0
:103530000868806800F00702062A0CD00868006856
:1035400040F001000B68186005E00868006840F072
:1035500001000B6818600020CEE700000000014069
:103560000004004000080040000C00400040014002
:10357000014691F83D00012801D00120704702204A
:1035800081F83D000868C06840F001000B68D86011
:10359000164B0868984213D00868B0F1804F0FD0DE
:1035A000134B086898420BD0124B0868984207D01A
:1035B000114B0868984203D0104B086898420CD110
:1035C0000868806800F00702062A0CD008680068C6
:1035D00040F001000B68186005E00868006840F0E2
:1035E00001000B6818600020C8E7000000000140DF
:1035F0000004004000080040000C00400040014072
:1036000001460868C06820F001000A68D06000BF69
:103610000868006A41F21112104050B90868006A47
:103620009210104028B90868006820F001000A686C
:10363000106000BF012081F83D00002070472DE997
:10364000F04104460D46002700BF94F83C000128D5
:1036500002D10220BDE8F081012084F83C0000BFC7
:10366000022084F83D002068866826F0770626F45C
:103670007F46206886602868502833D00CDC2028DC
:1036800050D004DC00284BD0102851D149E030281C
:1036900049D040284CD139E060282DD0702807D07F
:1036A000B0F5805F03D0B0F5005F41D10DE041E09F
:1036B000D5E902136A68206803F03FFD2068866838
:1036C00046F077062068866034E0D5E902136A6820
:1036D000206803F032FD2068806840F48040216853
:1036E000886027E0EA686968206803F0F7FD5021E8
:1036F000206803F02DFD1DE0EA686968206803F08A
:1037000000FE6021206803F023FD13E0EA68696889
:10371000206803F0E3FD4021206803F019FD09E073
:1037200000BF00BF00BF2968206803F011FD01E061
:10373000012700BF00BF012084F83D0000BF00202A
:1037400084F83C0000BF384684E7704770B50446F3
:103750002068C5682068066906F00200022819D1B1
:1037600005F00200022815D1401F216808610120E0
:1037700020772068806900F0030018B12046FFF729
:10378000E4FF05E0204600F0C7F8204600F094F979
:103790000020207706F00400042819D105F0040069
:1037A000042815D1C04321680861022020772068D1
:1037B000806900F4407018B12046FFF7C6FF05E0AD
:1037C000204600F0A9F8204600F076F90020207786
:1037D00006F00800082819D105F00800082815D1BE
:1037E000C04321680861042020772068C06900F088
:1037F000030018B12046FFF7A8FF05E0204600F0BF
:103800008BF8204600F058F90020207706F01000D1
:10381000102819D105F01000102815D1C0432168D7
:103820000861082020772068C06900F4407018B152
:103830002046FFF78AFF05E0204600F06DF820469D
:1038400000F03AF90020207706F0010048B105F0B9
:10385000010030B16FF0010021680861204600F0DE
:10386000A3F906F08000802809D105F080008028A7
:1038700005D1C043216808612046FFF73DFD06F0F1
:103880004000402809D105F04000402805D1C04340
:1038900021680861204600F0E5F906F020002028A4
:1038A00009D105F02000202805D1C0432168086116
:1038B0002046FFF722FD70BD10B586B004461421E6
:1038C00001A8FCF72FFD1149206888421CD100BFD8
:1038D000002000900E48006840F001000C4908608C
:1038E0000846006800F00100009000BF00BF0820FB
:1038F0000190022002900020039004900320059084
:1039000001A90448FEF7CCFA06B010BD0040014002
:10391000303802400000024070472DE9F041044673
:103920000D461646002700BF94F83C00012802D13E
:103930000220BDE8F081012084F83C0000BF36B1D0
:10394000042E1BD0082E31D00C2E5ED145E0294626
:10395000206803F007FC2068806940F008002168B7
:1039600088612068806920F00400216888612068EF
:103970008069296908432168886148E029462068F0
:1039800003F020FC2068806940F4006021688861B1
:103990002068806920F480602168886120688069DF
:1039A000296940EA01202168886130E029462068C1
:1039B00003F03CFC2068C06940F008002168C86141
:1039C0002068C06920F004002168C8612068C069CF
:1039D000296908432168C86119E02946206803F075
:1039E00059FC2068C06940F400602168C861206803
:1039F000C06920F480602168C8612068C0692969B5
:103A000040EA01202168C86101E0012700BF00BF32
:103A100000BF002084F83C0000BF384689E710B59D
:103A200004460CB9012010BD94F83D0028B90020CF
:103A300084F83C00204600F025F8022084F83D0080
:103A4000211D206803F00EFB012084F8460000BF12
:103A500084F83E0001213F200155402001554120BE
:103A6000015500BF00BF012084F8420043200155EA
:103A7000442001554520015500BF012084F83D0038
:103A80000020D0E708B50A4A016891420FD100BF73
:103A9000002100910749096841F48031054A11600D
:103AA0001146096801F48031009100BF00BF08BDD4
:103AB00000400140443802407047000070B50446A1
:103AC0000D4615B994F83E000BE0042D02D13F20BD
:103AD000005D06E0082D02D14020005D01E041209C
:103AE000005D012801D0012070BD1DB9022084F8BD
:103AF0003E000EE0042D03D102213F20015508E0D5
:103B0000082D03D102214020015502E0022141206D
:103B1000015501222946206803F0FEFA1D4920685C
:103B2000884201D1012000E0002028B12068406CCB
:103B300040F400402168486416492068884213D048
:103B40002068B0F1804F0FD01349206888420BD015
:103B500012492068884207D011492068884203D062
:103B60001049206888420CD12068806800F0070660
:103B7000062E0CD02068006840F001002168086023
:103B800005E02068006840F001002168086000201E
:103B9000AAE70000000001400004004000080040C7
:103BA000000C00400040014010B504462348844208
:103BB00004D123480068401C214908602148844200
:103BC0000AD121480068401C1F4908601F4800783E
:103BD00080F001001D4908701D48844226D11D480F
:103BE0000078B8B102211C48FEF73EFA10B9012056
:103BF0001A49887010211848FEF736FA10B90120CA
:103C00001649487020211448FEF72EFA10B90120F9
:103C1000124908704FF480610F48FEF725FA10B979
:103C200001200E49C8700A48FFF7EAFC0C492068D9
:103C3000884201D1FEF7A6FE10BD0000A0030020BF
:103C400008000020E80300200400002000000020FD
:103C500030040020D700002000040240E8000020CB
:103C6000004401407047F8B504460E46174694F8E4
:103C7000420020282ED106B10FB90120F8BD012045
:103C80002063002060633A463146204604F012F873
:103C90000546EDB9206B012819D100BF0020009026
:103CA00020680068009020684068009000BF00BF56
:103CB00000BF00BF21680C3151E8001F41F0100027
:103CC00021680C3141E80002002AF3D100E001250F
:103CD0002846D3E70220D1E770B505460C460A48CE
:103CE000854210D12246094900F056FA322207498E
:103CF0000548FFF7B8FF06480068006820F0080094
:103D000003490968086070BDC00400203E06002019
:103D100008050020704700002DE9F84F0446206890
:103D200005682068C668206847694FF00009CA46E0
:103D300005F00F09B9F1000F0AD105F0200038B1E4
:103D400006F0200020B1204603F020FEBDE8F88FE9
:103D5000B9F1000F7CD007F0010018B906F490709B
:103D6000002875D005F0010030B106F4807018B15C
:103D7000606C40F00100606405F0040030B107F0B1
:103D8000010018B1606C40F00200606405F00200B0
:103D900030B107F0010018B1606C40F004006064BD
:103DA00005F0080048B106F0200010B907F0010046
:103DB00018B1606C40F008006064606C002846D068
:103DC00005F0200028B106F0200010B1204603F0D5
:103DD000DDFD20684069C0F3801A606C00F00800C7
:103DE00010B9BAF1000F2DD0204603F076FD2068FF
:103DF000406900F04000402820D100BF00BF21688A
:103E0000143151E8001F21F040002168143141E8CD
:103E10000002002AF3D100BFE06B50B17748E16B9C
:103E20000865E06BFDF716FE88B1E06B016D884711
:103E30000DE02046FFF76EFF09E009E02046FFF79E
:103E400069FF04E02046FFF765FF002060647DE71E
:103E5000206B012878D105F01000002874D006F0FE
:103E600010000028FAD000BF0020009020680068F1
:103E7000009020684068009000BF00BF2068406943
:103E800000F04000402860D1E06B006840681FFAF5
:103E900080F8B8F1000F56D0A08D404553DDA4F84E
:103EA0002E80E06BC069B0F5807F43D000BF00BFBB
:103EB00021680C3151E8001F21F4807021680C3119
:103EC00041E80002002AF3D100BF00BF00BF216813
:103ED000143151E8001F21F001002168143141E83C
:103EE0000002002AF3D100BF00BF00BF21681431D7
:103EF00051E8001F21F040002168143141E8000220
:103F0000002AF3D100BF202084F842000020206363
:103F100000BF00BF21680C3151E8001F21F01000E4
:103F200021680C3141E80002002AF3D100BFE06BA8
:103F3000FDF73AFD02206063A08DE28D801A81B208
:103F40002046FFF7C9FE01E742E0A08DE18D401A4F
:103F50001FFA80F8E08DD0B3B8F1000F37D000BF62
:103F600000BF21680C3151E8001F21F490702168D6
:103F70000C3141E80002002AF3D100BF00BF00BFAE
:103F80002168143151E8001F21F00100216814312B
:103F900041E80002002AF3D100BF202084F842004B
:103FA0000020206300BF00BF21680C3151E8001FD2
:103FB00021F0100021680C3141E80002002AF3D101
:103FC00000BF0220606341462046FFF785FEBDE644
:103FD00005F0800030B106F0800018B1204603F0F3
:103FE000CDFEB3E605F0400030B106F0400018B158
:103FF000204603F0A8FCA9E600BFA7E63977000831
:1040000010B504460CB9012010BDA06900B100E054
:1040100000BF94F8410028B9002084F840002046F1
:1040200000F02AF8242084F841002068C06820F4B9
:1040300000502168C860204603F026FD2068006912
:1040400020F49040216808612068406920F02A002F
:10405000216848612068C06840F400502168C86049
:1040600000206064202084F8410084F84200002091
:10407000606300BFC8E7000010B586B00446142195
:1040800001A8FCF74FF93D492068884274D100BF70
:10409000002000903A48006840F01000384908605D
:1040A0000846006800F01000009000BF00BF00BF8D
:1040B0000020009032481438006840F00100304978
:1040C000143908600846006800F00100009000BF45
:1040D00000BF4FF4C06001900220029000200390C6
:1040E000032004900720059001A92648FDF7D8FE7B
:1040F0002548264908604FF00060486000212348A9
:104100008160C1604FF48061016100214161816182
:10411000C16101624162FDF7D1FD08B1FDF7D5F93A
:1041200000BF1A48E063846300BF1748783018491D
:1041300008604FF000604860402115488160002110
:10414000C1604FF480610161002141618161C16101
:1041500001624162FDF7B2FD08B1FDF7B6F900BF9B
:104160000B48A063846300BF002205212520FEF7D1
:10417000C1FC2520FEF7AAFC06B010BD00100140CE
:10418000443802400000024040640240080500201C
:104190006805002070477047F7B50446154694F847
:1041A0004100202836D1019800B10DB90120FEBD93
:1041B00001982062A584E58400206064212084F8B1
:1041C00041001548A16BC8631448A16B08641448EA
:1041D000A16BC8640020A16B086501AE23681A1D9D
:1041E00031682B46A06BFDF7DFFD6FF040002168C2
:1041F000086000BF00BF2168143151E8001F41F082
:1042000080002168143141E80002002AF3D100BF88
:104210000020CCE70220CAE775780008CD780008B6
:104220004D7700087047704700BFFEE701460868F9
:104230004069C0F38020B0B16FF480600A685061BB
:1042400000200863202081F83D00002081F83E0016
:10425000086C40F00400086400BF002081F83C00B6
:1042600000BF012070470020FCE700002DE9F84363
:1042700004460D4617469846E66A082E04D0012EDD
:1042800002D016F5803F06D12068006840F48070A7
:104290002168086008E0206B122805D120680068BA
:1042A00040F48070216808603B4600224FF0011105
:1042B0002046CDF8008000F08CF960B120680068DD
:1042C00000F48070B0F5807F02D14FF4007020645C
:1042D0000320BDE8F8832069B0F5804F04D105F0D4
:1042E000FE002168086112E005F44070F02141EA07
:1042F000E0102168086143463A460B49204600F029
:10430000C7F908B10120E4E7E8B221680861434633
:104310003A460549891F204600F0BAF908B1012044
:10432000D7E70020D5E70000080001002DE9F84399
:1043300004460F4615469946DDE908862068006860
:1043400040F48060216808602068006840F4807054
:1043500021680860434600224FF001112046009674
:1043600000F037F960B12068006800F48070B0F5A3
:10437000807F02D14FF4007020640320BDE8F883F1
:1043800007F0FE0021680861334642463E49204658
:1043900000F07EF908B10120F0E700BF0020009096
:1043A00020684069009020688069009000BF00BFCD
:1043B00032464146204600F02DFA50B1206C0428C8
:1043C00005D12068006840F4007021680860012071
:1043D000D4E7B9F1010F03D1E8B22168086117E011
:1043E000C5F307202168086132464146204600F0A7
:1043F00011FA50B1206C042805D12068006840F4FF
:104400000070216808600120B8E7E8B221680861FF
:1044100032464146204600F0FDF950B1206C042898
:1044200005D12068006840F4007021680860012010
:10443000A4E72068006840F4807021680860434663
:1044400000224FF001112046009600F0C2F858B14A
:104450002068006800F48070B0F5807F02D14FF4CE
:1044600000702064032089E7F8B240F00100216861
:104470000861334642460449204600F009F908B174
:1044800001207BE7002079E7020001002DE9F843D5
:104490000446884615469946DDE9086720680068A5
:1044A00040F4807021680860334600224FF001110B
:1044B0002046009700F08DF860B12068006800F495
:1044C0008070B0F5807F02D14FF40070206403202B
:1044D000BDE8F88308F0FE00216808613B463246DB
:1044E0002149204600F0D4F808B10120F0E700BFD0
:1044F000002000902068406900902068806900904A
:1045000000BF00BF3A463146204600F083F950B163
:10451000206C042805D12068006840F400702168F0
:1045200008600120D4E7B9F1010F03D1E8B2216896
:10453000086117E0C5F30720216808613A46314653
:10454000204600F067F950B1206C042805D120689E
:10455000006840F40070216808600120B8E7E8B204
:10456000216808610020B3E70200010070B504462D
:104570000D46164625E02046FFF758FE08B10120FB
:1045800070BD681CE8B1FDF787FD801BA84200D80C
:10459000BDB920684069C0F3800090B90020206355
:1045A000202084F83D00002084F83E00206C40F07C
:1045B0002000206400BF002084F83C0000BF0120E0
:1045C000DEE720684069C0F380000028D3D00020D7
:1045D000D6E72DE9F04104460D4617461E46DDF8A4
:1045E000188038E0701CA8B3FDF756FDA0EB08005A
:1045F000B04200D876BBC5F3074001280AD1206835
:104600004069A9B20840A9B2884201D101200BE05B
:10461000002009E020688069A9B20840A9B2884258
:1046200001D1012000E00020B84214D10020206315
:10463000202084F83D00002084F83E00206C40F0EB
:104640002000206400BF002084F83C0000BF01204F
:10465000BDE8F081FFE7C5F3074001280AD12068D3
:104660004069A9B20840A9B2884201D101200BE0FB
:10467000002009E020688069A9B20840A9B28842F8
:1046800001D1012000E00020B842ABD00020DFE7DC
:104690002DE9F04104460D4616461F4658E02068B5
:1046A0004069C0F38020E8B12068006840F40070E1
:1046B000216808606FF480602168486100202063F1
:1046C000202084F83D00002084F83E00206C40F05B
:1046D0000400206400BF002084F83C0000BF0120DB
:1046E000BDE8F081701C90B3FDF7D6FCC01BB04252
:1046F00000D866BBC5F3074001280AD1206840698D
:10470000A9B20840A9B2884201D101200BE00020E3
:1047100009E020688069A9B20840A9B2884201D1A5
:10472000012000E0002090B900202063202084F8C0
:104730003D00002084F83E00206C40F02000206402
:1047400000BF002084F83C0000BF0120C8E7FFE75D
:10475000C5F3074001280AD120684069A9B2084082
:10476000A9B2884201D101200BE0002009E02068B5
:104770008069A9B20840A9B2884201D1012000E0B5
:10478000002000288BD00020AAE770B504460D4613
:10479000164637E020684069C0F30010A0B16FF002
:1047A00010002168486100202063202084F83D002B
:1047B000002084F83E00206C206400BF002084F8B4
:1047C0003C0000BF012070BDFDF766FC801BA842C5
:1047D00000D8BDB920684069C0F3801090B90020AE
:1047E0002063202084F83D00002084F83E00206CE7
:1047F00040F02000206400BF002084F83C0000BF8F
:104800000120E0E720684069C0F380100028C1D093
:104810000020D8E770B504460D46164625E0204630
:10482000FFF704FD08B1012070BD681CE8B1FDF779
:1048300033FC801BA84200D8BDB920684069C0F392
:10484000C01090B900202063202084F83D00002093
:1048500084F83E00206C40F02000206400BF00205F
:1048600084F83C0000BF0120DEE720684069C0F307
:10487000C0100028D3D00020D6E7000010B559485A
:10488000FCF7B7FB584908600023584A19465648B8
:104890000068FCF78BFB56490860564A56A15448FD
:1048A0000068FCF7B7FB56490860564A56A15448C1
:1048B0000068FCF7AFFB56490860564A56A15448B9
:1048C0000068FCF7A7FB55490860554A55A15348B5
:1048D0000068FCF79FFB55490860554A55A15348AD
:1048E0000068FCF797FB564908600123554A56A11A
:1048F00043480068FCF75AFB55490860554A56A1E1
:1049000053480068FCF786FB564908605048006829
:10491000FCF7ACFB5449086052480068FCF7A6FB62
:10492000524908600123524A52A139480068FCF7F5
:104930003DFB524908600123514A52A14F4800688B
:10494000FCF734FB5149086008460068FCF78EFB11
:104950004F49086031480068FCF788FB4D49086002
:1049600032480068FCF782FB4B49086001234B4A40
:104970004BA133480068FCF719FB4B4908604B4AD0
:104980004BA149480068FCF745FB4C4908600022F0
:104990004BA14A480068FCF73DFB4C4908600022E7
:1049A0004BA14A480068FCF735FB4C4908603E487B
:1049B0000068FCF75BFB4A49086040480068FCF768
:1049C00055FB4849086008480068474908600648A0
:1049D00000684649086004480068806A44490860E5
:1049E00010BD0000556D00082C000020B5610008C6
:1049F00030000020516B000854696D6572000000A2
:104A0000340000200561000847616D65000000006A
:104A100038000020F17D00085756000040000020BB
:104A2000391100084448543131000000440000208E
:104A30000164000853657474696E677300000000B8
:104A40003C000020315C0008416C61726D00000088
:104A500048000020B565000853746F707761746377
:104A6000680000004C0000206C0000207000002056
:104A70005D97000844696E6F000000006000002030
:104A8000219E0008506C6179000000007C0000202D
:104A9000800000206400002068000020F16700080A
:104AA00054696D657365740050000020D95E00087C
:104AB000417474697475646500000000540000203E
:104AC00053686F776D6F6465000000005800002028
:104AD000426C7565746F6F74680000005C000020A4
:104AE0007400002078000020A4000020A000002016
:104AF000DC00002010B529480068806978B3284898
:104B0000007860BB00202749087027480068806A49
:104B10002649086024480068407820B91F4800688A
:104B20002149086011E02048006800781B490968A5
:104B30000978884205D11948006880691A490860D7
:104B400003E0164800681849086017480068407874
:104B500030B915480068406A104908601CE005E05B
:104B60001148006880690D49086015E00C4800781C
:104B700020B100200B490870094908700C480068F2
:104B8000806A0A490968884204D10A480068806A34
:104B90000649086000F066FC10BD0000A00000207F
:104BA000A9000020D7000020A4000020DC00002085
:104BB000300000202C00002014480068C06900B3B9
:104BC00000201349087013480068806A1249086081
:104BD0001048006800780D4909680978884205D0B6
:104BE0000A480068C0690949086004E0094800688B
:104BF000C0690649086007480068C069054908603F
:104C000002E001200549087070470000A000002064
:104C1000D7000020A4000020DC000020A900002014
:104C20000C490978A1B90C49097841B10B490978B7
:104C300089014A420A49097802EBC10106E00749A5
:104C400009788A0106490978A2EBC10148B200E05F
:104C500000207047D7000020D6000020D800002098
:104C6000CE00002070B52DED0C8B8EB004460D46A5
:104C70001646B7EE000AF0EE409A9FED7B0AB0EEC2
:104C8000408A9FED790AF0EE408A9FED770AB0EEF8
:104C9000409A03A804A905AB06AACDE900100AA909
:104CA0000CA804F03DFC28B14FF0FF300EB0BDEC75
:104CB0000C8B70BDBDF8100000F4807000287CD013
:104CC0009DED060AB8EEC00ADFED680A80EE201AF4
:104CD000F0EE419A9DED070AB8EEC00ADFED630AD7
:104CE00080EE201AB0EE418A9DED080AB8EEC00AA7
:104CF000DFED5E0A80EE201AF0EE418A9DED090A92
:104D0000B8EEC00ADFED590A80EE201AB0EE419AE3
:104D1000B8EE000A28EE000A20EE090AF0EE000ABA
:104D200069EEA00A00EEA80A10EE101A0846FBF77A
:104D300063FC41EC1C0BB0EE4C0AF0EE6C0A03F085
:104D400033FAB0EE40BAF0EE60BA9FED490B53EC87
:104D5000102B51EC1B0BFBF7DDFB41EC1A0BFBF7A7
:104D60005EFC2060B8EE000A28EE000A20EE080A79
:104D7000F0EE000A68EEA00A00EEE80AF7EE000A7C
:104D800030EE200A10EE101A0846FBF735FC41EC15
:104D90001C0BB0EE000A28EE800A20EE090AF0EEA5
:104DA000000A69EEA00A00EE880A10EE101A084602
:104DB000FBF722FC41EC1D0B00E053E0B0EE4C1A77
:104DC000F0EE6C1AB0EE4D0AF0EE6D0A03F008FD3D
:104DD000B0EE40BAF0EE60BA9FED250B53EC102B0D
:104DE00051EC1B0BFBF796FB41EC1A0BFBF717FC86
:104DF000286029EEA90A08EE080A08EEE80A09EE7A
:104E0000490A10EE101A0846FBF7F6FB41EC1C0BA2
:104E100029EE890A08EE280AF0EE000A20EE200AA0
:104E200010EE101A0846FBF7E7FB41EC1D0BB0EE45
:104E30004C1AF0EE6C1AB0EE4D0AF0EE6D0A03F06B
:104E4000CFFCB0EE40BAF0EE60BA9FED090B53EC28
:104E5000102B51EC1B0BFBF75DFB41EC1A0BFBF726
:104E6000DEFB3060002021E7000000000000804EE3
:104E70006666666666A64C401FB5002000900190ED
:104E8000029003901648174908604FF4803048603C
:104E9000002114488160016101210176002180F820
:104EA0002010C162104981620021C1600121C161ED
:104EB000002180F8301001214161FCF723FC08B18A
:104EC000FCF703FB002000900120019000200290DD
:104ED00069460448FCF740FB08B1FCF7F6FA1FBD31
:104EE00000200140080200200100000F08B500BFAB
:104EF000002000901248006840F4800010490860CB
:104F00000846006800F48000009000BF00BF002247
:104F100005213820FDF7EEFD3820FDF7D7FD0022F2
:104F200005213A20FDF7E6FD3A20FDF7CFFD0022EE
:104F300005214620FDF7DEFD4620FDF7C7FD08BD33
:104F4000303802401CB5144A0021144804F00CFF0C
:104F5000134908601348182100234FF48072CDE9EB
:104F6000001011A1134806F0C5FE134818210023B4
:104F70004FF48072CDE9001010A1134806F0BAFE7C
:104F80001248182100234FF48072CDE9001010A1BF
:104F9000114806F0AFFE1CBDC0C200083D6D000800
:104FA000180000200C0000204675636E74696F6E57
:104FB00000000000E91400081400002042656E6340
:104FC000686D61726B730000390D000810000020DD
:104FD000427574746F6E0000F90D000800B587B05B
:104FE000142102A8FBF79EF900BF002001904E4853
:104FF000006840F004004C4908600846006800F072
:105000000400019000BF00BF00BF002001900846CF
:10501000006840F0800008600846006800F08000EA
:10502000019000BF00BF00BF00200190084600684B
:1050300040F0010008600846006800F0010001909F
:1050400000BF00BF00BF002001900846006840F08C
:10505000020008600846006800F00200019000BFEE
:1050600000BF012251033148FDF710F8002204214E
:105070002F48FDF70BF84FF40050029001200390E9
:1050800000200490059002A92848FCF709FF4FF47E
:105090008040029000200390049002A92348FCF76E
:1050A000FFFE0120029000200390049002A92048F6
:1050B000FCF7F6FE40F2324002904FF404100390E9
:1050C0000120049002A91A48FCF7EAFE042002908D
:1050D0000120039000200490059002A91448FCF7D9
:1050E000DFFE002207210846FDF704FD0720FDF73B
:1050F000EDFC002205210A20FDF7FCFC0A20FDF74B
:10510000E5FC002207211720FDF7F4FC1720FDF72E
:10511000DDFC002207212820FDF7ECFC2820FDF70C
:10512000D5FC07B000BD0000303802400008024046
:105130000004024010B50B480B4908600B4848605A
:10514000002109488160C1604FF480410161002164
:1051500041618161C1610162FCF7A4FF08B1FCF704
:10516000B4F910BD00540040B0020020801A0600BF
:1051700010B50B480B4908600B48486000210948EE
:105180008160C1604FF48041016100214161816112
:10519000C1610162FCF786FF08B1FCF796F910BD0A
:1051A000005C004004030020801A060000B587B0B0
:1051B00000200390049005900690019002904FF01B
:1051C00080401449086040F2E730486000211148EF
:1051D00081606321C1600021016180218161FEF74E
:1051E000DBF808B1FCF771F94FF48050039003A984
:1051F0000848FEF724FA08B1FCF767F9002001908F
:10520000029001A90348FEF779F808B1FCF75DF9AF
:1052100007B000BD5803002000B587B00020039000
:105220000490059006900190029015481549086079
:1052300042F20F70486000211248816042F20F7103
:10524000C1600021016180218161FEF7A5F808B1EC
:10525000FCF73BF94FF48050039003A90948FEF78F
:10526000EEF908B1FCF731F900200190029001A994
:105270000448FEF743F808B1FCF727F907B000BD72
:1052800000040040A003002000B587B00020039078
:105290000490059006900190029015481549086009
:1052A00042F20F70486000211248816042F20F7193
:1052B000C1600021016180218161FEF76DF808B1B4
:1052C000FCF703F94FF48050039003A90948FEF757
:1052D000B6F908B1FCF7F9F800200190029001A995
:1052E0000448FEF70BF808B1FCF7EFF807B000BD73
:1052F00000080040E803002000B587B000200390BC
:105300000490059006900190029015481549086098
:1053100042F20F7048600021124881606321C16031
:105320000021016180218161FEF736F808B1FCF7A8
:10533000CCF84FF48050039003A90A48FEF77FF998
:1053400008B1FCF7C2F800200190029001A90548BD
:10535000FDF7D4FF08B1FCF7B8F807B000BD0000B6
:10536000000C00403004002000B587B01C216846C6
:10537000FAF7D8FF13481449086040F2E730486054
:105380000021114881606321C160002101618021F9
:105390008161FEF744FB08B1FCF797F860200090AC
:1053A0000020019002900490042269460648FEF70E
:1053B000B4FA08B1FCF789F80348FEF77DFA07B0A4
:1053C00000BD0000004001407804002010B50B48EB
:1053D0000B4908604FF4E1304860002108488160C3
:1053E000C16001610C21416100218161C161FEF751
:1053F00007FE08B1FCF769F810BD0000001001407D
:10540000C004002000BFFEE700BFFEE770B5024603
:10541000002312B900248C7018E000200DE0155C08
:10542000CC1C2554245C202C01D05C1CE3B2CC1C89
:10543000245C04B903E0441CE0B21428EFDD00BF93
:105440005C1E8C700026CC1C451C665570BD10B5CA
:105450008D2000F02BFA102000F028FAAE2000F08A
:1054600025FA10BD10B58D2000F020FA142000F0B0
:105470001DFAAF2000F01AFA10BDFCB506460F4623
:1054800014461D466078CDE900052378394630463C
:10549000626800F08AFAFCBD2DE9FE4F04460D4615
:1054A00016461F46B44213D1BD4203DD4C48057079
:1054B0003D460778A84608E0414620460C9A00F091
:1054C000FFFA08F1010000F0FF08B845F4DD84E0C0
:1054D000BD4213D1B44203DD41480470344606781E
:1054E000A04608E0294640460C9A00F0E9FA08F187
:1054F000010000F0FF08B045F4DD6EE0A6EB040803
:10550000A7EB0509B8F1000F01DD012000E0002044
:105510000121C1EB40000290B9F1000F01DD012033
:1055200000E000200121C1EB40000190A34600955E
:105530004FF0000AB8F1000001DB014600E04142F3
:105540000FFA81F8B9F1000001DB014600E04142A9
:105550000FFA81F9C8451FDDA3461AE0009AD1B2BF
:105560000BF0FF000C9A00F0ABFA0AEB09000FFAFF
:1055700080FAB8EB4A0F08DCDDE90001084400B20C
:105580000090AAEB08000FFA80FA029858440FFA2C
:1055900080FBB345E2D11FE000951AE0009AD1B23A
:1055A0000BF0FF000C9A00F08BFA0AEB08000FFAE0
:1055B00080FAB9EB4A0F07DC029858440FFA80FBD7
:1055C000AAEB09000FFA80FADDE90001084400B2F5
:1055D00000900098B842E1D100BFBDE8FE8F000006
:1055E0007B0100202DE9F84104460D4616461F4672
:1055F000DDF81C80A019C2B22B4629462046CDF802
:105600000080FFF749FFE819C3B2A019C2B2E81938
:10561000C1B22046CDF80080FFF73EFFE819C3B2C3
:10562000224629462046CDF80080FFF735FFE919CC
:10563000CBB2A119CAB2A119C8B22946CDF80080CF
:10564000FFF72AFFBDE8F88110B51420FCF7F6FB40
:10565000AE2000F02BF9202000F028F9102000F0F7
:1056600025F9B02000F022F9C82000F01FF9002031
:1056700000F01CF9102000F019F9402000F016F994
:10568000812000F013F9DF2000F010F9A12000F0D4
:105690000DF9A62000F00AF9A82000F007F93F2034
:1056A00000F004F9A42000F001F9D32000F0FEF886
:1056B000002000F0FBF8D52000F0F8F8F02000F012
:1056C000F5F8D92000F0F2F8222000F0EFF8DA2007
:1056D00000F0ECF8122000F0E9F8DB2000F0E6F82A
:1056E000202000F0E3F88D2000F0E0F8142000F016
:1056F000DDF8002000F006F800F026FAAF2000F0F8
:10570000D5F810BD10B5044622464FF4806102481A
:10571000FAF701FE10BD0000800700202DE9FC43D0
:105720000746884615461C46DDF824902078CDE9CA
:1057300000092078C61DF01706EB5070C010617884
:1057400010FB01F1A5F12000D4F804C000FB01C258
:1057500063784146384600F028F9BDE8FC83000034
:10576000F0B52DED048B83B006460F46B0EE408AAF
:1057700014461D4618EE100AFAF73EFF41EC190BCD
:1057800053EC192B07A102A802F0C2FC234602AA7F
:1057900039463046009500F009F803B0BDEC048BA3
:1057A000F0BD0000252E3166000000002DE9FF4FFE
:1057B00085B0804617461C46DDF8489000262178C3
:1057C000C81DC11700EB5171C910627811FB02F1BD
:1057D000091DC9B2049152E000200390B81902F0EB
:1057E00079FC054605B94DE04FF0000B20E06168FB
:1057F00004980BFB001AB8192A465146FAF7C2FD65
:1058000090B92078CDE9000963780AF10402404696
:10581000069900F0CAF86078404400F0FF0870195B
:1058200086B20120039006E00BF1010000F0FF0BAF
:10583000207A5845DBDC00BF039800BB012D0FD157
:10584000CDF80090BA5DE36840460699FFF766FF21
:10585000E0684078404400F0FF08701986B20EE01E
:10586000CDF800902022E36840460699FFF756FFE6
:10587000E0684078404400F0FF08701986B2B85DD7
:105880000028A9D100BF09B0BDE8F08F38B50446A3
:105890000D464FF0FF302B462246782100900248FB
:1058A000FCF7E8FC38BD0000B002002010B504464B
:1058B000024844700221FFF7E9FF10BD7801002083
:1058C0002DE9FC4380460C4616461F462046E1174C
:1058D00004EB5171C1F3C7092046E11704EB517184
:1058E000C910A4EBC101CDB20720CDE9000706FA2B
:1058F00005F0C2B22B464146484600F0A3F875B108
:10590000681EC0B2C5F1080146FA01F209F10101B1
:10591000CDE90007C8B20023414600F093F8BDE886
:10592000FC832DE9FC4781460C4616461F46DDF8F0
:1059300028802046E11704EB5171C1F3C70A2046C5
:10594000E11704EB5171C910A4EBC101CDB2E81904
:1059500008281BDD0720CDE9000806FA05F0C2B2D1
:105960002B464946504600F06DF878190938C0B208
:10597000C5F1080146FA01F20AF10101CDE900087A
:10598000C8B20023494600F05DF80CE0E819401E5B
:10599000C0B2CDE9000806FA05F0C2B22B4649466E
:1059A000504600F04FF8BDE8FC872DE9FC4F8146DA
:1059B0008A4693461D460B9C2046E11704EB517125
:1059C000C1F3C707E11704EB5171C910A4EBC10182
:1059D000C9B201914FF0000816E000260EE006FB68
:1059E00005831BF803200AEBC603D9B209EB0803B1
:1059F000D8B20C9BFFF764FF701CC6B2BE42EEDB50
:105A000008F1010000F0FF08A845E6DB0198B8B1F5
:105A100005FB07F8002610E00C9808EB0603009041
:105A20001BF803200AEBC703D9B209EB0603D8B26F
:105A3000019BFFF776FF701CC6B2AE42ECDB00BFE5
:105A4000BDE8FC8FF0B5DDE90545082801DA8029BD
:105A500000DBF0BD0DB1D643F2B2661CFF2707FA9A
:105A600006F61643C3F1080C47FA0CF73E43124FF3
:105A70003E70124E06EBC016765C3F783E400F4FEC
:105A800007EBC0177E54661CFF27B74022EA0706C3
:105A9000C3F1080CFF2747FA0CF7BE43064F3E70D0
:105AA000064E06EBC016765C3F783E43034F07EB8D
:105AB000C0177E5400BFCCE77A0100208007002089
:105AC000F0B503461446802B01DA402900DBF0BD17
:105AD000DCB9CD1701EB5575ED101A4E06EBC51567
